{
  "abi": [
    {
      "inputs": [
        {
          "internalType": "address",
          "name": "_axiomV2QueryAddress",
          "type": "address"
        },
        {
          "internalType": "uint64",
          "name": "_callbackSourceChainId",
          "type": "uint64"
        },
        {
          "internalType": "bytes32",
          "name": "_axiomCallbackQuerySchema",
          "type": "bytes32"
        }
      ],
      "stateMutability": "nonpayable",
      "type": "constructor"
    },
    {
      "anonymous": false,
      "inputs": [
        {
          "indexed": false,
          "internalType": "address",
          "name": "axiomCallbackCallerAddr",
          "type": "address"
        }
      ],
      "name": "AxiomCallbackCallerAddrUpdated",
      "type": "event"
    },
    {
      "anonymous": false,
      "inputs": [
        {
          "indexed": false,
          "internalType": "uint32",
          "name": "updateBlockNumber",
          "type": "uint32"
        },
        {
          "indexed": false,
          "internalType": "uint32",
          "name": "nextUpdateBlockNumber",
          "type": "uint32"
        },
        {
          "indexed": false,
          "internalType": "uint96",
          "name": "stake",
          "type": "uint96"
        }
      ],
      "name": "AxiomCallbackSuccess",
      "type": "event"
    },
    {
      "anonymous": false,
      "inputs": [
        {
          "indexed": true,
          "internalType": "uint64",
          "name": "sourceChainId",
          "type": "uint64"
        },
        {
          "indexed": false,
          "internalType": "address",
          "name": "callerAddr",
          "type": "address"
        },
        {
          "indexed": true,
          "internalType": "bytes32",
          "name": "querySchema",
          "type": "bytes32"
        },
        {
          "indexed": true,
          "internalType": "uint256",
          "name": "queryId",
          "type": "uint256"
        }
      ],
      "name": "AxiomV2Call",
      "type": "event"
    },
    {
      "inputs": [],
      "name": "axiomCallbackCallerAddr",
      "outputs": [
        {
          "internalType": "address",
          "name": "",
          "type": "address"
        }
      ],
      "stateMutability": "view",
      "type": "function"
    },
    {
      "inputs": [],
      "name": "axiomCallbackQuerySchema",
      "outputs": [
        {
          "internalType": "bytes32",
          "name": "",
          "type": "bytes32"
        }
      ],
      "stateMutability": "view",
      "type": "function"
    },
    {
      "inputs": [
        {
          "internalType": "uint64",
          "name": "sourceChainId",
          "type": "uint64"
        },
        {
          "internalType": "address",
          "name": "callerAddr",
          "type": "address"
        },
        {
          "internalType": "bytes32",
          "name": "querySchema",
          "type": "bytes32"
        },
        {
          "internalType": "uint256",
          "name": "queryId",
          "type": "uint256"
        },
        {
          "internalType": "bytes32[]",
          "name": "axiomResults",
          "type": "bytes32[]"
        },
        {
          "internalType": "bytes",
          "name": "callbackExtraData",
          "type": "bytes"
        }
      ],
      "name": "axiomV2Callback",
      "outputs": [],
      "stateMutability": "nonpayable",
      "type": "function"
    },
    {
      "inputs": [],
      "name": "axiomV2QueryAddress",
      "outputs": [
        {
          "internalType": "address",
          "name": "",
          "type": "address"
        }
      ],
      "stateMutability": "view",
      "type": "function"
    },
    {
      "inputs": [],
      "name": "callbackSourceChainId",
      "outputs": [
        {
          "internalType": "uint64",
          "name": "",
          "type": "uint64"
        }
      ],
      "stateMutability": "view",
      "type": "function"
    },
    {
      "inputs": [
        {
          "internalType": "bytes",
          "name": "input",
          "type": "bytes"
        }
      ],
      "name": "convertBytesToBytes32",
      "outputs": [
        {
          "internalType": "bytes32",
          "name": "result",
          "type": "bytes32"
        }
      ],
      "stateMutability": "pure",
      "type": "function"
    },
    {
      "inputs": [
        {
          "internalType": "bytes32",
          "name": "operatorId",
          "type": "bytes32"
        },
        {
          "internalType": "uint256",
          "name": "quorumNumber",
          "type": "uint256"
        },
        {
          "internalType": "uint256",
          "name": "operatorIdToStakeHistorySlot",
          "type": "uint256"
        },
        {
          "components": [
            {
              "internalType": "uint64",
              "name": "sourceChainId",
              "type": "uint64"
            },
            {
              "internalType": "bytes32",
              "name": "dataQueryHash",
              "type": "bytes32"
            },
            {
              "components": [
                {
                  "internalType": "uint8",
                  "name": "k",
                  "type": "uint8"
                },
                {
                  "internalType": "uint16",
                  "name": "resultLen",
                  "type": "uint16"
                },
                {
                  "internalType": "bytes32[]",
                  "name": "vkey",
                  "type": "bytes32[]"
                },
                {
                  "internalType": "bytes",
                  "name": "computeProof",
                  "type": "bytes"
                }
              ],
              "internalType": "struct IAxiomV2Query.AxiomV2ComputeQuery",
              "name": "computeQuery",
              "type": "tuple"
            },
            {
              "components": [
                {
                  "internalType": "address",
                  "name": "target",
                  "type": "address"
                },
                {
                  "internalType": "bytes",
                  "name": "extraData",
                  "type": "bytes"
                }
              ],
              "internalType": "struct IAxiomV2Query.AxiomV2Callback",
              "name": "callback",
              "type": "tuple"
            },
            {
              "internalType": "bytes32",
              "name": "userSalt",
              "type": "bytes32"
            },
            {
              "internalType": "uint64",
              "name": "maxFeePerGas",
              "type": "uint64"
            },
            {
              "internalType": "uint32",
              "name": "callbackGasLimit",
              "type": "uint32"
            },
            {
              "internalType": "address",
              "name": "refundee",
              "type": "address"
            },
            {
              "internalType": "bytes",
              "name": "dataQuery",
              "type": "bytes"
            }
          ],
          "internalType": "struct IAxiomV2Input.AxiomV2QueryData",
          "name": "axiomData",
          "type": "tuple"
        }
      ],
      "name": "processSlashing",
      "outputs": [],
      "stateMutability": "payable",
      "type": "function"
    },
    {
      "inputs": [
        {
          "internalType": "address",
          "name": "",
          "type": "address"
        }
      ],
      "name": "querySubmitted",
      "outputs": [
        {
          "internalType": "bool",
          "name": "",
          "type": "bool"
        }
      ],
      "stateMutability": "view",
      "type": "function"
    }
  ],
  "bytecode": {
    "object": "0x60a060405234801561001057600080fd5b5060405161122438038061122483398101604081905261002f91610075565b6001600160a01b0392909216608052600080546001600160401b03929092166001600160e01b0319909216919091173068010000000000000000021790556001556100d0565b60008060006060848603121561008a57600080fd5b83516001600160a01b03811681146100a157600080fd5b60208501519093506001600160401b03811681146100be57600080fd5b80925050604084015190509250925092565b60805161112c6100f86000396000818160cf0152818161034b0152610467015261112c6000f3fe60806040526004361061007b5760003560e01c8063ab72fc091161004e578063ab72fc0914610145578063cd1cd72514610185578063dc5cd53c146101a9578063f5babff2146101c957600080fd5b80630a50ec5c146100805780632a75d3be146100bd57806345e1ef8d146101095780636820839d14610130575b600080fd5b34801561008c57600080fd5b506000546100a0906001600160401b031681565b6040516001600160401b0390911681526020015b60405180910390f35b3480156100c957600080fd5b506100f17f000000000000000000000000000000000000000000000000000000000000000081565b6040516001600160a01b0390911681526020016100b4565b34801561011557600080fd5b506000546100f190600160401b90046001600160a01b031681565b61014361013e366004610a16565b6101e9565b005b34801561015157600080fd5b50610175610160366004610a91565b60026020526000908152604090205460ff1681565b60405190151581526020016100b4565b34801561019157600080fd5b5061019b60015481565b6040519081526020016100b4565b3480156101b557600080fd5b506101436101c4366004610b12565b61045c565b3480156101d557600080fd5b5061019b6101e4366004610bfc565b61055e565b604080516020810186905290810183905260009060600160408051601f198184030181528282528051602091820120908301879052908201819052915060009060600160408051601f19818403018152828252805160209182012090830181905292506000910160408051601f19818403018152919052805160209091012090506102c261027a6060860186610cac565b610288906020810190610ccc565b8080601f01602080910402602001604051908101604052809392919081815260200183838082843760009201919091525061055e92505050565b81146103295760405162461bcd60e51b815260206004820152602b60248201527f53746f7261676520736c6f74207573656420696e2063616c6c6261636b20776160448201526a1cc81a5b98dbdc9c9958dd60aa1b60648201526084015b60405180910390fd5b61033f61033a610100860186610ccc565b6105b2565b60006001600160a01b037f00000000000000000000000000000000000000000000000000000000000000001663ba1d7f193461037e6020890189610d12565b602089013561039060408b018b610d2d565b61039d60608c018c610cac565b60808c01356103b260c08e0160a08f01610d12565b8d60c00160208101906103c59190610d43565b8e60e00160208101906103d89190610a91565b8f8061010001906103e99190610ccc565b6040518c63ffffffff1660e01b815260040161040e9a99989796959493929190610e92565b60206040518083038185885af115801561042c573d6000803e3d6000fd5b50505050506040513d601f19601f820116820180604052508101906104519190610fa6565b505050505050505050565b336001600160a01b037f000000000000000000000000000000000000000000000000000000000000000016146104ee5760405162461bcd60e51b815260206004820152603160248201527f4178696f6d5632436c69656e743a2063616c6c6572206d757374206265206178604482015270696f6d563251756572794164647265737360781b6064820152608401610320565b6040516001600160a01b0388168152859087906001600160401b038b16907fc6d3309bf887e48755c9a455e332b73641b6bf2fd018e3b608bf21676c4c0af59060200160405180910390a46105448888886106cd565b61055488888888888888886107f3565b5050505050505050565b600081516020146105aa5760405162461bcd60e51b8152602060048201526016602482015275496e707574206d75737420626520333220627974657360501b6044820152606401610320565b506020015190565b60003660006105c1858561089b565b92509250925060006105d38383610928565b505084519091506001600160401b031646146106665760405162461bcd60e51b815260206004820152604660248201527f44617461517565727920736f75726365436861696e496420626520746865207360448201527f616d6520617320746865206465706c6f79656420636f6e7472616374277320636064820152651a185a5b925960d21b608482015260a401610320565b805161ffff166003146106c55760405162461bcd60e51b815260206004820152602160248201527f73746f726167655371302e737562717565727954797065206d757374206265206044820152600d60fa1b6064820152608401610320565b505050505050565b6000546001600160401b038481169116146107395760405162461bcd60e51b815260206004820152602660248201527f4178696f6d56323a2063616c6c657220736f75726365436861696e4964206d696044820152650e6dac2e8c6d60d31b6064820152608401610320565b6000546001600160a01b03838116600160401b909204161461079d5760405162461bcd60e51b815260206004820181905260248201527f4178696f6d56323a2063616c6c65722061646472657373206d69736d617463686044820152606401610320565b60015481146107ee5760405162461bcd60e51b815260206004820152601e60248201527f4178696f6d56323a20717565727920736368656d61206d69736d6174636800006044820152606401610320565b505050565b600061080182840184610fbf565b905060008585600081811061081857610818610fd8565b604080516020928302949094013560e081901c80865260c082901c63ffffffff8116948701949094526bffffffffffffffffffffffff82169286019290925294509290915083907f0fb2c4c0cb54776e01d78d46687db70b5f3f606eb72b055f44332ba814629bdc9060600160405180910390a150505050505050505050505050565b6040805180820190915260008082526020820152366000806108c06008828789610fee565b6108c991611018565b60c01c905060006108de600a6008888a610fee565b6108e791611048565b604080518082019091526001600160401b038416815260f09190911c60208201819052915061091987600a818b610fee565b94509450945050509250925092565b6040805160808101825260008082526020820181905291810182905260608101919091523660008061095d6002828789610fee565b61096691611048565b60f01c9050600061097b60066002888a610fee565b61098491611076565b60e01c90506000610999601a6006898b610fee565b6109a2916110a4565b60601c905060006109b7603a601a8a8c610fee565b6109c0916110d7565b6040805160808101825261ffff8716815263ffffffff861660208201526001600160a01b0385169181019190915260608101829052909150610a0589603a818d610fee565b965096509650505050509250925092565b60008060008060808587031215610a2c57600080fd5b84359350602085013592506040850135915060608501356001600160401b03811115610a5757600080fd5b85016101208188031215610a6a57600080fd5b939692955090935050565b80356001600160a01b0381168114610a8c57600080fd5b919050565b600060208284031215610aa357600080fd5b610aac82610a75565b9392505050565b80356001600160401b0381168114610a8c57600080fd5b60008083601f840112610adc57600080fd5b5081356001600160401b03811115610af357600080fd5b602083019150836020828501011115610b0b57600080fd5b9250929050565b60008060008060008060008060c0898b031215610b2e57600080fd5b610b3789610ab3565b9750610b4560208a01610a75565b9650604089013595506060890135945060808901356001600160401b0380821115610b6f57600080fd5b818b0191508b601f830112610b8357600080fd5b813581811115610b9257600080fd5b8c60208260051b8501011115610ba757600080fd5b6020830196508095505060a08b0135915080821115610bc557600080fd5b50610bd28b828c01610aca565b999c989b5096995094979396929594505050565b634e487b7160e01b600052604160045260246000fd5b600060208284031215610c0e57600080fd5b81356001600160401b0380821115610c2557600080fd5b818401915084601f830112610c3957600080fd5b813581811115610c4b57610c4b610be6565b604051601f8201601f19908116603f01168101908382118183101715610c7357610c73610be6565b81604052828152876020848701011115610c8c57600080fd5b826020860160208301376000928101602001929092525095945050505050565b60008235603e19833603018112610cc257600080fd5b9190910192915050565b6000808335601e19843603018112610ce357600080fd5b8301803591506001600160401b03821115610cfd57600080fd5b602001915036819003821315610b0b57600080fd5b600060208284031215610d2457600080fd5b610aac82610ab3565b60008235607e19833603018112610cc257600080fd5b600060208284031215610d5557600080fd5b813563ffffffff81168114610aac57600080fd5b6000808335601e19843603018112610d8057600080fd5b83016020810192503590506001600160401b03811115610d9f57600080fd5b8060051b3603821315610b0b57600080fd5b81835260006001600160fb1b03831115610dca57600080fd5b8260051b80836020870137939093016020019392505050565b6000808335601e19843603018112610dfa57600080fd5b83016020810192503590506001600160401b03811115610e1957600080fd5b803603821315610b0b57600080fd5b81835281816020850137506000828201602090810191909152601f909101601f19169091010190565b6001600160a01b03610e6282610a75565b1682526000610e746020830183610de3565b60406020860152610e89604086018284610e28565b95945050505050565b60006101206001600160401b038d1683528b60208401528060408401528a3560ff8116808214610ec157600080fd5b808386015250505060208a013561ffff8116808214610edf57600080fd5b61014084015250610ef360408b018b610d69565b6080610160850152610f0a6101a085018284610db1565b915050610f1a60608c018c610de3565b84830361011f1901610180860152610f33838284610e28565b925050508281036060840152610f49818b610e51565b9050886080840152610f6660a08401896001600160401b03169052565b63ffffffff871660c08401526001600160a01b03861660e0840152828103610100840152610f95818587610e28565b9d9c50505050505050505050505050565b600060208284031215610fb857600080fd5b5051919050565b600060208284031215610fd157600080fd5b5035919050565b634e487b7160e01b600052603260045260246000fd5b60008085851115610ffe57600080fd5b8386111561100b57600080fd5b5050820193919092039150565b6001600160c01b031981358181169160088510156110405780818660080360031b1b83161692505b505092915050565b6001600160f01b031981358181169160028510156110405760029490940360031b84901b1690921692915050565b6001600160e01b031981358181169160048510156110405760049490940360031b84901b1690921692915050565b6bffffffffffffffffffffffff1981358181169160148510156110405760149490940360031b84901b1690921692915050565b803560208310156110f057600019602084900360031b1b165b9291505056fea26469706673582212201b88441fd46bfccda353bd0fd72fa3d4b8492fa5e9432d442fcbfd56a95cc21d64736f6c63430008130033",
    "linkReferences": {}
  },
  "methodIdentifiers": {
    "axiomCallbackCallerAddr()": "45e1ef8d",
    "axiomCallbackQuerySchema()": "cd1cd725",
    "axiomV2Callback(uint64,address,bytes32,uint256,bytes32[],bytes)": "dc5cd53c",
    "axiomV2QueryAddress()": "2a75d3be",
    "callbackSourceChainId()": "0a50ec5c",
    "convertBytesToBytes32(bytes)": "f5babff2",
    "processSlashing(bytes32,uint256,uint256,(uint64,bytes32,(uint8,uint16,bytes32[],bytes),(address,bytes),bytes32,uint64,uint32,address,bytes))": "6820839d",
    "querySubmitted(address)": "ab72fc09"
  },
  "id": 19
}