{
  "abi": [
    {
      "inputs": [
        {
          "internalType": "address",
          "name": "_axiomV2QueryAddress",
          "type": "address"
        },
        {
          "internalType": "uint64",
          "name": "_callbackSourceChainId",
          "type": "uint64"
        },
        {
          "internalType": "bytes32",
          "name": "_axiomCallbackQuerySchema",
          "type": "bytes32"
        }
      ],
      "stateMutability": "nonpayable",
      "type": "constructor"
    },
    {
      "anonymous": false,
      "inputs": [
        {
          "indexed": false,
          "internalType": "address",
          "name": "axiomCallbackCallerAddr",
          "type": "address"
        }
      ],
      "name": "AxiomCallbackCallerAddrUpdated",
      "type": "event"
    },
    {
      "anonymous": false,
      "inputs": [
        {
          "indexed": false,
          "internalType": "bytes32",
          "name": "axiomCallbackQuerySchema",
          "type": "bytes32"
        }
      ],
      "name": "AxiomCallbackQuerySchemaUpdated",
      "type": "event"
    },
    {
      "anonymous": false,
      "inputs": [
        {
          "indexed": true,
          "internalType": "uint64",
          "name": "sourceChainId",
          "type": "uint64"
        },
        {
          "indexed": false,
          "internalType": "address",
          "name": "callerAddr",
          "type": "address"
        },
        {
          "indexed": true,
          "internalType": "bytes32",
          "name": "querySchema",
          "type": "bytes32"
        },
        {
          "indexed": true,
          "internalType": "uint256",
          "name": "queryId",
          "type": "uint256"
        }
      ],
      "name": "AxiomV2Call",
      "type": "event"
    },
    {
      "inputs": [],
      "name": "axiomCallbackCallerAddr",
      "outputs": [
        {
          "internalType": "address",
          "name": "",
          "type": "address"
        }
      ],
      "stateMutability": "view",
      "type": "function"
    },
    {
      "inputs": [],
      "name": "axiomCallbackQuerySchema",
      "outputs": [
        {
          "internalType": "bytes32",
          "name": "",
          "type": "bytes32"
        }
      ],
      "stateMutability": "view",
      "type": "function"
    },
    {
      "inputs": [
        {
          "internalType": "uint64",
          "name": "sourceChainId",
          "type": "uint64"
        },
        {
          "internalType": "address",
          "name": "callerAddr",
          "type": "address"
        },
        {
          "internalType": "bytes32",
          "name": "querySchema",
          "type": "bytes32"
        },
        {
          "internalType": "uint256",
          "name": "queryId",
          "type": "uint256"
        },
        {
          "internalType": "bytes32[]",
          "name": "axiomResults",
          "type": "bytes32[]"
        },
        {
          "internalType": "bytes",
          "name": "callbackExtraData",
          "type": "bytes"
        }
      ],
      "name": "axiomV2Callback",
      "outputs": [],
      "stateMutability": "nonpayable",
      "type": "function"
    },
    {
      "inputs": [],
      "name": "axiomV2QueryAddress",
      "outputs": [
        {
          "internalType": "address",
          "name": "",
          "type": "address"
        }
      ],
      "stateMutability": "view",
      "type": "function"
    },
    {
      "inputs": [],
      "name": "callbackSourceChainId",
      "outputs": [
        {
          "internalType": "uint64",
          "name": "",
          "type": "uint64"
        }
      ],
      "stateMutability": "view",
      "type": "function"
    },
    {
      "inputs": [
        {
          "internalType": "bytes",
          "name": "input",
          "type": "bytes"
        }
      ],
      "name": "convertBytesToBytes32",
      "outputs": [
        {
          "internalType": "bytes32",
          "name": "result",
          "type": "bytes32"
        }
      ],
      "stateMutability": "pure",
      "type": "function"
    },
    {
      "inputs": [
        {
          "internalType": "bytes32",
          "name": "operatorId",
          "type": "bytes32"
        },
        {
          "internalType": "uint256",
          "name": "quorumNumber",
          "type": "uint256"
        },
        {
          "internalType": "uint256",
          "name": "operatorIdToStakeHistorySlot",
          "type": "uint256"
        },
        {
          "components": [
            {
              "internalType": "uint64",
              "name": "sourceChainId",
              "type": "uint64"
            },
            {
              "internalType": "bytes32",
              "name": "dataQueryHash",
              "type": "bytes32"
            },
            {
              "components": [
                {
                  "internalType": "uint8",
                  "name": "k",
                  "type": "uint8"
                },
                {
                  "internalType": "uint16",
                  "name": "resultLen",
                  "type": "uint16"
                },
                {
                  "internalType": "bytes32[]",
                  "name": "vkey",
                  "type": "bytes32[]"
                },
                {
                  "internalType": "bytes",
                  "name": "computeProof",
                  "type": "bytes"
                }
              ],
              "internalType": "struct IAxiomV2Query.AxiomV2ComputeQuery",
              "name": "computeQuery",
              "type": "tuple"
            },
            {
              "components": [
                {
                  "internalType": "address",
                  "name": "target",
                  "type": "address"
                },
                {
                  "internalType": "bytes",
                  "name": "extraData",
                  "type": "bytes"
                }
              ],
              "internalType": "struct IAxiomV2Query.AxiomV2Callback",
              "name": "callback",
              "type": "tuple"
            },
            {
              "internalType": "bytes32",
              "name": "userSalt",
              "type": "bytes32"
            },
            {
              "internalType": "uint64",
              "name": "maxFeePerGas",
              "type": "uint64"
            },
            {
              "internalType": "uint32",
              "name": "callbackGasLimit",
              "type": "uint32"
            },
            {
              "internalType": "address",
              "name": "refundee",
              "type": "address"
            },
            {
              "internalType": "bytes",
              "name": "dataQuery",
              "type": "bytes"
            }
          ],
          "internalType": "struct IAxiomV2Input.AxiomV2QueryData",
          "name": "axiomData",
          "type": "tuple"
        }
      ],
      "name": "processSlashing",
      "outputs": [],
      "stateMutability": "payable",
      "type": "function"
    },
    {
      "inputs": [
        {
          "internalType": "address",
          "name": "",
          "type": "address"
        }
      ],
      "name": "querySubmitted",
      "outputs": [
        {
          "internalType": "bool",
          "name": "",
          "type": "bool"
        }
      ],
      "stateMutability": "view",
      "type": "function"
    }
  ],
  "bytecode": {
    "object": "0x60a060405234801561001057600080fd5b50604051610dfc380380610dfc83398101604081905261002f91610075565b6001600160a01b0392909216608052600080546001600160401b03929092166001600160e01b0319909216919091173068010000000000000000021790556001556100d0565b60008060006060848603121561008a57600080fd5b83516001600160a01b03811681146100a157600080fd5b60208501519093506001600160401b03811681146100be57600080fd5b80925050604084015190509250925092565b608051610d046100f86000396000818160cf0152818161033501526104510152610d046000f3fe60806040526004361061007b5760003560e01c8063ab72fc091161004e578063ab72fc0914610145578063cd1cd72514610185578063dc5cd53c146101a9578063f5babff2146101c957600080fd5b80630a50ec5c146100805780632a75d3be146100bd57806345e1ef8d146101095780636820839d14610130575b600080fd5b34801561008c57600080fd5b506000546100a0906001600160401b031681565b6040516001600160401b0390911681526020015b60405180910390f35b3480156100c957600080fd5b506100f17f000000000000000000000000000000000000000000000000000000000000000081565b6040516001600160a01b0390911681526020016100b4565b34801561011557600080fd5b506000546100f190600160401b90046001600160a01b031681565b61014361013e3660046106f6565b6101e9565b005b34801561015157600080fd5b50610175610160366004610771565b60026020526000908152604090205460ff1681565b60405190151581526020016100b4565b34801561019157600080fd5b5061019b60015481565b6040519081526020016100b4565b3480156101b557600080fd5b506101436101c43660046107f2565b610446565b3480156101d557600080fd5b5061019b6101e43660046108dc565b610548565b604080516020810186905290810183905260009060600160408051601f198184030181528282528051602091820120908301879052908201819052915060009060600160408051601f19818403018152828252805160209182012090830181905292506000910160408051601f19818403018152919052805160209091012090506102c261027a606086018661098c565b6102889060208101906109ac565b8080601f01602080910402602001604051908101604052809392919081815260200183838082843760009201919091525061054892505050565b81146103295760405162461bcd60e51b815260206004820152602b60248201527f53746f7261676520736c6f74207573656420696e2063616c6c6261636b20776160448201526a1cc81a5b98dbdc9c9958dd60aa1b60648201526084015b60405180910390fd5b60006001600160a01b037f00000000000000000000000000000000000000000000000000000000000000001663ba1d7f193461036860208901896109f2565b602089013561037a60408b018b610a0d565b61038760608c018c61098c565b60808c013561039c60c08e0160a08f016109f2565b8d60c00160208101906103af9190610a23565b8e60e00160208101906103c29190610771565b8f8061010001906103d391906109ac565b6040518c63ffffffff1660e01b81526004016103f89a99989796959493929190610b72565b60206040518083038185885af1158015610416573d6000803e3d6000fd5b50505050506040513d601f19601f8201168201806040525081019061043b9190610c86565b505050505050505050565b336001600160a01b037f000000000000000000000000000000000000000000000000000000000000000016146104d85760405162461bcd60e51b815260206004820152603160248201527f4178696f6d5632436c69656e743a2063616c6c6572206d757374206265206178604482015270696f6d563251756572794164647265737360781b6064820152608401610320565b6040516001600160a01b0388168152859087906001600160401b038b16907fc6d3309bf887e48755c9a455e332b73641b6bf2fd018e3b608bf21676c4c0af59060200160405180910390a461052e88888861059c565b61053e88888888888888886106c2565b5050505050505050565b600081516020146105945760405162461bcd60e51b8152602060048201526016602482015275496e707574206d75737420626520333220627974657360501b6044820152606401610320565b506020015190565b6000546001600160401b038481169116146106085760405162461bcd60e51b815260206004820152602660248201527f4178696f6d56323a2063616c6c657220736f75726365436861696e4964206d696044820152650e6dac2e8c6d60d31b6064820152608401610320565b6000546001600160a01b03838116600160401b909204161461066c5760405162461bcd60e51b815260206004820181905260248201527f4178696f6d56323a2063616c6c65722061646472657373206d69736d617463686044820152606401610320565b60015481146106bd5760405162461bcd60e51b815260206004820152601e60248201527f4178696f6d56323a20717565727920736368656d61206d69736d6174636800006044820152606401610320565b505050565b60006106d082840184610c9f565b90506000858560008181106106e7576106e7610cb8565b50505050505050505050505050565b6000806000806080858703121561070c57600080fd5b84359350602085013592506040850135915060608501356001600160401b0381111561073757600080fd5b8501610120818803121561074a57600080fd5b939692955090935050565b80356001600160a01b038116811461076c57600080fd5b919050565b60006020828403121561078357600080fd5b61078c82610755565b9392505050565b80356001600160401b038116811461076c57600080fd5b60008083601f8401126107bc57600080fd5b5081356001600160401b038111156107d357600080fd5b6020830191508360208285010111156107eb57600080fd5b9250929050565b60008060008060008060008060c0898b03121561080e57600080fd5b61081789610793565b975061082560208a01610755565b9650604089013595506060890135945060808901356001600160401b038082111561084f57600080fd5b818b0191508b601f83011261086357600080fd5b81358181111561087257600080fd5b8c60208260051b850101111561088757600080fd5b6020830196508095505060a08b01359150808211156108a557600080fd5b506108b28b828c016107aa565b999c989b5096995094979396929594505050565b634e487b7160e01b600052604160045260246000fd5b6000602082840312156108ee57600080fd5b81356001600160401b038082111561090557600080fd5b818401915084601f83011261091957600080fd5b81358181111561092b5761092b6108c6565b604051601f8201601f19908116603f01168101908382118183101715610953576109536108c6565b8160405282815287602084870101111561096c57600080fd5b826020860160208301376000928101602001929092525095945050505050565b60008235603e198336030181126109a257600080fd5b9190910192915050565b6000808335601e198436030181126109c357600080fd5b8301803591506001600160401b038211156109dd57600080fd5b6020019150368190038213156107eb57600080fd5b600060208284031215610a0457600080fd5b61078c82610793565b60008235607e198336030181126109a257600080fd5b600060208284031215610a3557600080fd5b813563ffffffff8116811461078c57600080fd5b6000808335601e19843603018112610a6057600080fd5b83016020810192503590506001600160401b03811115610a7f57600080fd5b8060051b36038213156107eb57600080fd5b81835260006001600160fb1b03831115610aaa57600080fd5b8260051b80836020870137939093016020019392505050565b6000808335601e19843603018112610ada57600080fd5b83016020810192503590506001600160401b03811115610af957600080fd5b8036038213156107eb57600080fd5b81835281816020850137506000828201602090810191909152601f909101601f19169091010190565b6001600160a01b03610b4282610755565b1682526000610b546020830183610ac3565b60406020860152610b69604086018284610b08565b95945050505050565b60006101206001600160401b038d1683528b60208401528060408401528a3560ff8116808214610ba157600080fd5b808386015250505060208a013561ffff8116808214610bbf57600080fd5b61014084015250610bd360408b018b610a49565b6080610160850152610bea6101a085018284610a91565b915050610bfa60608c018c610ac3565b84830361011f1901610180860152610c13838284610b08565b925050508281036060840152610c29818b610b31565b9050886080840152610c4660a08401896001600160401b03169052565b63ffffffff871660c08401526001600160a01b03861660e0840152828103610100840152610c75818587610b08565b9d9c50505050505050505050505050565b600060208284031215610c9857600080fd5b5051919050565b600060208284031215610cb157600080fd5b5035919050565b634e487b7160e01b600052603260045260246000fdfea264697066735822122006185fa24dbbea19e1430815edc3e7c930011a5f735f273931b95a5961b0997764736f6c63430008130033",
    "linkReferences": {}
  },
  "methodIdentifiers": {
    "axiomCallbackCallerAddr()": "45e1ef8d",
    "axiomCallbackQuerySchema()": "cd1cd725",
    "axiomV2Callback(uint64,address,bytes32,uint256,bytes32[],bytes)": "dc5cd53c",
    "axiomV2QueryAddress()": "2a75d3be",
    "callbackSourceChainId()": "0a50ec5c",
    "convertBytesToBytes32(bytes)": "f5babff2",
    "processSlashing(bytes32,uint256,uint256,(uint64,bytes32,(uint8,uint16,bytes32[],bytes),(address,bytes),bytes32,uint64,uint32,address,bytes))": "6820839d",
    "querySubmitted(address)": "ab72fc09"
  },
  "id": 19
}